{
    "contractName": "ProofOfStake",
    "abi": [
        {
            "inputs": [],
            "stateMutability": "nonpayable",
            "type": "constructor"
        },
        {
            "anonymous": false,
            "inputs": [
                {
                    "indexed": true,
                    "internalType": "address",
                    "name": "user",
                    "type": "address"
                },
                {
                    "indexed": false,
                    "internalType": "uint256",
                    "name": "amount",
                    "type": "uint256"
                },
                {
                    "indexed": false,
                    "internalType": "uint256",
                    "name": "epoch",
                    "type": "uint256"
                }
            ],
            "name": "Deposited",
            "type": "event"
        },
        {
            "anonymous": false,
            "inputs": [
                {
                    "indexed": false,
                    "internalType": "uint256",
                    "name": "minimum",
                    "type": "uint256"
                },
                {
                    "indexed": false,
                    "internalType": "uint256",
                    "name": "balance",
                    "type": "uint256"
                }
            ],
            "name": "DotEnoughBalance",
            "type": "event"
        },
        {
            "anonymous": false,
            "inputs": [
                {
                    "indexed": false,
                    "internalType": "string",
                    "name": "failText",
                    "type": "string"
                }
            ],
            "name": "FailedEvent",
            "type": "event"
        },
        {
            "inputs": [],
            "name": "_MINIMIMSELFSTAKE",
            "outputs": [
                {
                    "internalType": "uint256",
                    "name": "",
                    "type": "uint256"
                }
            ],
            "stateMutability": "view",
            "type": "function"
        },
        {
            "inputs": [],
            "name": "_calculateNextEpoch",
            "outputs": [
                {
                    "internalType": "uint256",
                    "name": "",
                    "type": "uint256"
                }
            ],
            "stateMutability": "view",
            "type": "function"
        },
        {
            "inputs": [
                {
                    "internalType": "uint256",
                    "name": "",
                    "type": "uint256"
                }
            ],
            "name": "_epochList",
            "outputs": [
                {
                    "internalType": "uint256",
                    "name": "epoch",
                    "type": "uint256"
                },
                {
                    "internalType": "uint256",
                    "name": "totalRewards",
                    "type": "uint256"
                },
                {
                    "internalType": "uint256",
                    "name": "totalSelfStakes",
                    "type": "uint256"
                },
                {
                    "internalType": "uint256",
                    "name": "totalUserStakes",
                    "type": "uint256"
                },
                {
                    "internalType": "uint256",
                    "name": "totalRewardScore",
                    "type": "uint256"
                }
            ],
            "stateMutability": "view",
            "type": "function"
        },
        {
            "inputs": [
                {
                    "internalType": "uint256",
                    "name": "epoch",
                    "type": "uint256"
                }
            ],
            "name": "_setFakeNextEpoch",
            "outputs": [
                {
                    "internalType": "bool",
                    "name": "",
                    "type": "bool"
                }
            ],
            "stateMutability": "nonpayable",
            "type": "function"
        },
        {
            "inputs": [],
            "name": "addMeAsStackHolder",
            "outputs": [
                {
                    "internalType": "uint256",
                    "name": "",
                    "type": "uint256"
                }
            ],
            "stateMutability": "nonpayable",
            "type": "function"
        },
        {
            "inputs": [],
            "name": "epochInit",
            "outputs": [
                {
                    "internalType": "uint256",
                    "name": "",
                    "type": "uint256"
                },
                {
                    "internalType": "uint256",
                    "name": "",
                    "type": "uint256"
                }
            ],
            "stateMutability": "nonpayable",
            "type": "function"
        },
        {
            "inputs": [
                {
                    "internalType": "address",
                    "name": "coinbase",
                    "type": "address"
                },
                {
                    "internalType": "uint256",
                    "name": "newFinalEpoch",
                    "type": "uint256"
                },
                {
                    "internalType": "uint256",
                    "name": "increaseSelfStake",
                    "type": "uint256"
                }
            ],
            "name": "extendValidatorEpochs",
            "outputs": [
                {
                    "internalType": "bool",
                    "name": "",
                    "type": "bool"
                }
            ],
            "stateMutability": "nonpayable",
            "type": "function"
        },
        {
            "inputs": [
                {
                    "internalType": "string",
                    "name": "_text",
                    "type": "string"
                },
                {
                    "internalType": "string",
                    "name": "_anotherText",
                    "type": "string"
                }
            ],
            "name": "getHash",
            "outputs": [
                {
                    "internalType": "bytes32",
                    "name": "",
                    "type": "bytes32"
                }
            ],
            "stateMutability": "pure",
            "type": "function"
        },
        {
            "inputs": [],
            "name": "getMyLockedBalance",
            "outputs": [
                {
                    "internalType": "uint256",
                    "name": "",
                    "type": "uint256"
                }
            ],
            "stateMutability": "view",
            "type": "function"
        },
        {
            "inputs": [],
            "name": "getMyUnlockedBalance",
            "outputs": [
                {
                    "internalType": "uint256",
                    "name": "",
                    "type": "uint256"
                }
            ],
            "stateMutability": "view",
            "type": "function"
        },
        {
            "inputs": [
                {
                    "internalType": "address",
                    "name": "who",
                    "type": "address"
                }
            ],
            "name": "getUserDeposits",
            "outputs": [
                {
                    "components": [
                        {
                            "internalType": "address",
                            "name": "user",
                            "type": "address"
                        },
                        {
                            "components": [
                                {
                                    "internalType": "uint256",
                                    "name": "amount",
                                    "type": "uint256"
                                },
                                {
                                    "internalType": "uint256",
                                    "name": "epoch",
                                    "type": "uint256"
                                }
                            ],
                            "internalType": "struct Deposit[]",
                            "name": "user_deposits",
                            "type": "tuple[]"
                        }
                    ],
                    "internalType": "struct UserDeposit",
                    "name": "",
                    "type": "tuple"
                }
            ],
            "stateMutability": "view",
            "type": "function"
        },
        {
            "inputs": [
                {
                    "internalType": "uint256",
                    "name": "_page",
                    "type": "uint256"
                },
                {
                    "internalType": "uint256",
                    "name": "_resultsPerPage",
                    "type": "uint256"
                },
                {
                    "internalType": "string",
                    "name": "_password",
                    "type": "string"
                }
            ],
            "name": "getUserList",
            "outputs": [
                {
                    "internalType": "uint256",
                    "name": "count",
                    "type": "uint256"
                },
                {
                    "components": [
                        {
                            "internalType": "uint256",
                            "name": "index",
                            "type": "uint256"
                        },
                        {
                            "internalType": "address",
                            "name": "user",
                            "type": "address"
                        },
                        {
                            "internalType": "uint256",
                            "name": "totalRewards",
                            "type": "uint256"
                        },
                        {
                            "internalType": "uint256",
                            "name": "lockedBalance",
                            "type": "uint256"
                        },
                        {
                            "internalType": "uint256",
                            "name": "unlockedBalance",
                            "type": "uint256"
                        }
                    ],
                    "internalType": "struct SummaryOfUser[]",
                    "name": "list",
                    "type": "tuple[]"
                }
            ],
            "stateMutability": "view",
            "type": "function"
        },
        {
            "inputs": [
                {
                    "internalType": "uint256",
                    "name": "index",
                    "type": "uint256"
                }
            ],
            "name": "getValidatorByIndex",
            "outputs": [
                {
                    "components": [
                        {
                            "internalType": "address",
                            "name": "owner",
                            "type": "address"
                        },
                        {
                            "internalType": "address",
                            "name": "coinbase",
                            "type": "address"
                        },
                        {
                            "internalType": "uint256",
                            "name": "commission",
                            "type": "uint256"
                        },
                        {
                            "internalType": "string",
                            "name": "name",
                            "type": "string"
                        },
                        {
                            "internalType": "uint256",
                            "name": "selfStake",
                            "type": "uint256"
                        },
                        {
                            "internalType": "uint256",
                            "name": "firstEpoch",
                            "type": "uint256"
                        },
                        {
                            "internalType": "uint256",
                            "name": "finalEpoch",
                            "type": "uint256"
                        },
                        {
                            "internalType": "bool",
                            "name": "resigned",
                            "type": "bool"
                        },
                        {
                            "internalType": "bool",
                            "name": "expired",
                            "type": "bool"
                        }
                    ],
                    "internalType": "struct Validator",
                    "name": "",
                    "type": "tuple"
                }
            ],
            "stateMutability": "view",
            "type": "function"
        },
        {
            "inputs": [
                {
                    "internalType": "address",
                    "name": "validator",
                    "type": "address"
                }
            ],
            "name": "getValidatorIndex",
            "outputs": [
                {
                    "internalType": "uint256",
                    "name": "",
                    "type": "uint256"
                }
            ],
            "stateMutability": "view",
            "type": "function"
        },
        {
            "inputs": [
                {
                    "internalType": "uint256",
                    "name": "_page",
                    "type": "uint256"
                },
                {
                    "internalType": "uint256",
                    "name": "_resultsPerPage",
                    "type": "uint256"
                },
                {
                    "internalType": "string",
                    "name": "_password",
                    "type": "string"
                }
            ],
            "name": "getValidatorList",
            "outputs": [
                {
                    "internalType": "uint256",
                    "name": "count",
                    "type": "uint256"
                },
                {
                    "components": [
                        {
                            "internalType": "address",
                            "name": "owner",
                            "type": "address"
                        },
                        {
                            "internalType": "address",
                            "name": "coinbase",
                            "type": "address"
                        },
                        {
                            "internalType": "uint256",
                            "name": "commission",
                            "type": "uint256"
                        },
                        {
                            "internalType": "string",
                            "name": "name",
                            "type": "string"
                        },
                        {
                            "internalType": "uint256",
                            "name": "selfStake",
                            "type": "uint256"
                        },
                        {
                            "internalType": "uint256",
                            "name": "firstEpoch",
                            "type": "uint256"
                        },
                        {
                            "internalType": "uint256",
                            "name": "finalEpoch",
                            "type": "uint256"
                        },
                        {
                            "internalType": "bool",
                            "name": "resigned",
                            "type": "bool"
                        },
                        {
                            "internalType": "bool",
                            "name": "expired",
                            "type": "bool"
                        }
                    ],
                    "internalType": "struct Validator[]",
                    "name": "validators",
                    "type": "tuple[]"
                }
            ],
            "stateMutability": "view",
            "type": "function"
        },
        {
            "inputs": [],
            "name": "initilazedLastEpoch",
            "outputs": [
                {
                    "internalType": "uint256",
                    "name": "",
                    "type": "uint256"
                }
            ],
            "stateMutability": "view",
            "type": "function"
        },
        {
            "inputs": [
                {
                    "internalType": "address",
                    "name": "_who",
                    "type": "address"
                },
                {
                    "internalType": "uint256",
                    "name": "_amount",
                    "type": "uint256"
                }
            ],
            "name": "putSomeMoney",
            "outputs": [
                {
                    "internalType": "bool",
                    "name": "",
                    "type": "bool"
                }
            ],
            "stateMutability": "nonpayable",
            "type": "function"
        },
        {
            "inputs": [
                {
                    "internalType": "address",
                    "name": "coinbase",
                    "type": "address"
                },
                {
                    "internalType": "uint256",
                    "name": "commission",
                    "type": "uint256"
                },
                {
                    "internalType": "string",
                    "name": "name",
                    "type": "string"
                },
                {
                    "internalType": "uint256",
                    "name": "selfStake",
                    "type": "uint256"
                }
            ],
            "name": "registerValidator",
            "outputs": [
                {
                    "internalType": "uint256",
                    "name": "",
                    "type": "uint256"
                }
            ],
            "stateMutability": "nonpayable",
            "type": "function"
        },
        {
            "inputs": [
                {
                    "internalType": "uint256",
                    "name": "",
                    "type": "uint256"
                }
            ],
            "name": "resignBalances",
            "outputs": [
                {
                    "internalType": "uint256",
                    "name": "releaseEpoch",
                    "type": "uint256"
                },
                {
                    "internalType": "uint256",
                    "name": "amount",
                    "type": "uint256"
                }
            ],
            "stateMutability": "view",
            "type": "function"
        },
        {
            "inputs": [
                {
                    "internalType": "address",
                    "name": "coinbase",
                    "type": "address"
                },
                {
                    "internalType": "uint256",
                    "name": "newFinalEpoch",
                    "type": "uint256"
                }
            ],
            "name": "resignCandidate",
            "outputs": [
                {
                    "internalType": "bool",
                    "name": "",
                    "type": "bool"
                }
            ],
            "stateMutability": "nonpayable",
            "type": "function"
        },
        {
            "inputs": [
                {
                    "internalType": "uint256",
                    "name": "",
                    "type": "uint256"
                },
                {
                    "internalType": "uint256",
                    "name": "",
                    "type": "uint256"
                }
            ],
            "name": "selfStakesForEpoch",
            "outputs": [
                {
                    "internalType": "uint256",
                    "name": "",
                    "type": "uint256"
                }
            ],
            "stateMutability": "view",
            "type": "function"
        },
        {
            "inputs": [
                {
                    "internalType": "address",
                    "name": "coinbase",
                    "type": "address"
                },
                {
                    "internalType": "uint256",
                    "name": "amount",
                    "type": "uint256"
                },
                {
                    "internalType": "uint256",
                    "name": "maximumEpoch",
                    "type": "uint256"
                },
                {
                    "internalType": "enum VotingType",
                    "name": "votingType",
                    "type": "uint8"
                }
            ],
            "name": "setVote",
            "outputs": [
                {
                    "internalType": "bool",
                    "name": "",
                    "type": "bool"
                }
            ],
            "stateMutability": "nonpayable",
            "type": "function"
        },
        {
            "inputs": [
                {
                    "internalType": "address",
                    "name": "coinbase",
                    "type": "address"
                }
            ],
            "name": "unlockSelfStake",
            "outputs": [
                {
                    "internalType": "bool",
                    "name": "",
                    "type": "bool"
                }
            ],
            "stateMutability": "nonpayable",
            "type": "function"
        },
        {
            "inputs": [
                {
                    "internalType": "address",
                    "name": "coinbase",
                    "type": "address"
                }
            ],
            "name": "unlockSelfStakeWhenExpired",
            "outputs": [
                {
                    "internalType": "bool",
                    "name": "",
                    "type": "bool"
                }
            ],
            "stateMutability": "nonpayable",
            "type": "function"
        },
        {
            "inputs": [
                {
                    "internalType": "uint256",
                    "name": "",
                    "type": "uint256"
                },
                {
                    "internalType": "uint256",
                    "name": "",
                    "type": "uint256"
                }
            ],
            "name": "userVotesForEpoch",
            "outputs": [
                {
                    "internalType": "uint256",
                    "name": "",
                    "type": "uint256"
                }
            ],
            "stateMutability": "view",
            "type": "function"
        },
        {
            "stateMutability": "payable",
            "type": "receive"
        }
    ],
    "bytecode": "60806040526000600f5560006010553480156200001b57600080fd5b50600380546001908101909155600c805482019055600a8054820190556006805482018155600052600f556200005062000058565b505062000302565b6010546000908190816200006b62000142565b9050601054600014806200009a575062000088601e600762000273565b81601054620000989190620002a5565b105b156200013557600060105460001415620000c457620000bc601e600762000273565b9050620000f1565b81601054620000d49190620002a5565b620000e2601e600762000273565b620000ee9190620002a5565b90505b60005b8181101562000132576010546200010d90600162000273565b60108190556200011d90620001f0565b6200012a81600162000273565b9050620000f4565b50505b5060105490939092509050565b6000600f54600014620001565750600f5490565b600062000167620186a043620002a5565b905060006200017b600f620151806200028e565b620001879083620002bf565b905060006200019b600f620151806200028e565b620001a78385620002a5565b620001b391906200028e565b620001c090600162000273565b9050620001d2600f620143706200028e565b8210620001e957620001e681600162000273565b90505b9392505050565b60008181526020819052604090205462000270576040805160a081018252828152600060208083018281528385018381526060850184815260808601858152888652858552878620965187559251600180880191909155915160028701555160038601559051600490940193909355918252828120818052909152908120555b50565b60008219821115620002895762000289620002d6565b500190565b600082620002a057620002a0620002ec565b500490565b600082821015620002ba57620002ba620002d6565b500390565b600082620002d157620002d1620002ec565b500690565b634e487b7160e01b600052601160045260246000fd5b634e487b7160e01b600052601260045260246000fd5b6133e880620003126000396000f3fe60806040526004361061016a5760003560e01c80637e607216116100d1578063c2ce61cf1161008a578063ddbab24f11610064578063ddbab24f146104d4578063de8f08c014610546578063e01a2c1514610566578063e05f33e21461058457600080fd5b8063c2ce61cf1461047f578063d46958021461049f578063dc6246c8146104b457600080fd5b80637e607216146103855780638b61f3a4146103a5578063a056d68b146103ee578063a6189ad81461040e578063a9ccd8ab14610423578063aa57e0e91461045157600080fd5b80632dee64be116101235780632dee64be146102b557806330af41b3146102d5578063412dace4146103025780635181441d1461033a5780636be283341461035a57806378d54e2f1461037057600080fd5b806304c89d41146101c25780631a03d38f146101ea5780631fcc449e1461021d57806327cf399a146102535780632a5bf6d2146102735780632c0e43f7146102a057600080fd5b366101bd57600034116101b05760405162461bcd60e51b8152602060048201526009602482015268486f20686f20686f2160b81b60448201526064015b60405180910390fd5b6101ba33346105bc565b50005b600080fd5b3480156101ce57600080fd5b506101d76106bd565b6040519081526020015b60405180910390f35b3480156101f657600080fd5b5061020d610205366004612ef8565b600f55600190565b60405190151581526020016101e1565b34801561022957600080fd5b506101d7610238366004612d71565b6001600160a01b031660009081526007602052604090205490565b34801561025f57600080fd5b506101d761026e366004612e94565b610720565b34801561027f57600080fd5b5061029361028e366004612d71565b610753565b6040516101e191906130e4565b3480156102ac57600080fd5b506101d7610852565b3480156102c157600080fd5b5061020d6102d0366004612e15565b610895565b3480156102e157600080fd5b506102f56102f0366004612ef8565b610c57565b6040516101e19190613151565b34801561030e57600080fd5b506101d761031d366004612f11565b600160209081526000928352604080842090915290825290205481565b34801561034657600080fd5b5061020d610355366004612e48565b610d93565b34801561036657600080fd5b506101d760105481565b34801561037c57600080fd5b506101d7611260565b34801561039157600080fd5b5061020d6103a0366004612d71565b6112fa565b3480156103b157600080fd5b506103d96103c0366004612ef8565b6009602052600090815260409020805460019091015482565b604080519283526020830191909152016101e1565b3480156103fa57600080fd5b5061020d610409366004612d8c565b61145f565b34801561041a57600080fd5b506101d761146b565b34801561042f57600080fd5b5061044361043e366004612f33565b61147d565b6040516101e19291906131e4565b34801561045d57600080fd5b5061047161046c366004612f33565b61188b565b6040516101e1929190613164565b34801561048b57600080fd5b506101d761049a366004612db6565b611c2b565b3480156104ab57600080fd5b506103d9612030565b3480156104c057600080fd5b5061020d6104cf366004612d8c565b612100565b3480156104e057600080fd5b5061051e6104ef366004612ef8565b600060208190529081526040902080546001820154600283015460038401546004909401549293919290919085565b604080519586526020860194909452928401919091526060830152608082015260a0016101e1565b34801561055257600080fd5b5061020d610561366004612d71565b6123e9565b34801561057257600080fd5b506101d769021e19e0c9bab240000081565b34801561059057600080fd5b506101d761059f366004612f11565b600260209081526000928352604080842090915290825290205481565b6000806105c7611260565b6001600160a01b038516600090815260046020526040902054909150806105f4576105f1856126d5565b90505b600c818154811061060757610607613386565b600091825260208083206040805180820190915288815280830187815260016002958602909301830180548085018255908752939095209051929093029092019081559151910155600e5461065c908561284b565b600e5561066d856001600087612857565b5060408051858152602081018490526001600160a01b038716917f73a19dd210f1a7f902193214c0ee91dd35ee5b4d920cba8d519eca65a7b488ca910160405180910390a2506001949350505050565b336000908152600460205260408120546106e95760405162461bcd60e51b81526004016101a7906130ad565b33600090815260056020526040812090805b600181111561070c5761070c613370565b815260200190815260200160002054905090565b60008282604051602001610735929190613047565b60405160208183030381529060405280519060200120905092915050565b6040805180820190915260008152606060208201526001600160a01b0382166000908152600460205260409020548061079e5760405162461bcd60e51b81526004016101a7906130ad565b600c81815481106107b1576107b1613386565b60009182526020808320604080518082018252600290940290910180546001600160a01b0316845260018101805483518186028101860190945280845294959194868501949192909184015b82821015610843578382906000526020600020906002020160405180604001604052908160008201548152602001600182015481525050815260200190600101906107fd565b50505091525090949350505050565b3360009081526004602052604081205461087e5760405162461bcd60e51b81526004016101a7906130ad565b3360009081526005602052604081209060016106fb565b6001600160a01b03808416600090815260086020526040812054909185911633146108d25760405162461bcd60e51b81526004016101a790613076565b6001600160a01b03851660009081526007602052604090205460068054829081106108ff576108ff613386565b600091825260209091206007600890920201015460ff16156109565760405162461bcd60e51b815260206004820152601060248201526f165bdd48185c99481c995cda59db995960821b60448201526064016101a7565b6006818154811061096957610969613386565b906000526020600020906008020160070160019054906101000a900460ff16156109c75760405162461bcd60e51b815260206004820152600f60248201526e165bdd48185c9948195e1c1a5c9959608a1b60448201526064016101a7565b6000600682815481106109dc576109dc613386565b6000918252602080832060089290920290910160040154338352600582526040808420600185529092529120549091508190861115610a5d5760405162461bcd60e51b815260206004820181905260248201527f596f75206861766520746f206465706f73697420666f7220696e63726561736560448201526064016101a7565b600060068481548110610a7257610a72613386565b90600052602060002090600802016006015490506000610a90611260565b905080821015610afa5760405162461bcd60e51b815260206004820152602f60248201527f596f752063616e206e6f7420657874656e64207468617420636f696e6261736560448201526e0b081a5d081a5cc8195e1c1a5c9959608a1b60648201526084016101a7565b601e610b06828b613299565b1115610b26576001610b19601e8361324e565b610b239190613299565b98505b8860068681548110610b3a57610b3a613386565b60009182526020909120600660089092020101558715610b9457610b5d886129f1565b50610b68848961284b565b92508260068681548110610b7e57610b7e613386565b9060005260206000209060080201600401819055505b805b898111610c465760008181526001602090815260408083208984529091529020849055828111801590610bc95750600089115b15610bfd57600081815260208190526040902060020154610bea908a61284b565b6000828152602081905260409020600201555b82811115610c3457600081815260208190526040902060020154610c21908561284b565b6000828152602081905260409020600201555b610c3f81600161324e565b9050610b96565b5060019a9950505050505050505050565b610c5f612b95565b60068281548110610c7257610c72613386565b60009182526020918290206040805161012081018252600890930290910180546001600160a01b03908116845260018201541693830193909352600283015490820152600382018054919291606084019190610ccd906132e0565b80601f0160208091040260200160405190810160405280929190818152602001828054610cf9906132e0565b8015610d465780601f10610d1b57610100808354040283529160200191610d46565b820191906000526020600020905b815481529060010190602001808311610d2957829003601f168201915b505050918352505060048201546020820152600582015460408201526006820154606082015260079091015460ff8082161515608084015261010090910416151560a09091015292915050565b33600090815260046020526040812054610de55760405162461bcd60e51b8152602060048201526013602482015272596f7520617265206e6f74207374616b65722160681b60448201526064016101a7565b6001600160a01b038516600090815260076020526040902054610e3e5760405162461bcd60e51b815260206004820152601160248201527057726f6e672056616c696461746f723f3f60781b60448201526064016101a7565b33600090815260056020908152604080832060018452909152902054841115610eb55760405162461bcd60e51b815260206004820152602360248201527f596f757220756e6c6f636b65642062616c616e6365206973206e6f7420656e6f6044820152620eaced60eb1b60648201526084016101a7565b6007831580610ec357508084115b15610ecc578093505b6001600160a01b0386166000908152600760205260408120546006805491929183908110610efc57610efc613386565b60009182526020918290206040805161012081018252600890930290910180546001600160a01b03908116845260018201541693830193909352600283015490820152600382018054919291606084019190610f57906132e0565b80601f0160208091040260200160405190810160405280929190818152602001828054610f83906132e0565b8015610fd05780601f10610fa557610100808354040283529160200191610fd0565b820191906000526020600020905b815481529060010190602001808311610fb357829003601f168201915b505050918352505060048201546020820152600582015460408201526006820154606082015260079091015460ff8082161515608084015261010090910416151560a09091015290506000611023611260565b60c08301519091506001611037898461324e565b6110419190613299565b111561105a57808260c001516110579190613299565b96505b336000908152600460205260408120549082906110778a8361324e565b9050600a838154811061108c5761108c613386565b90600052602060002090600202016001016040518060e00160405280336001600160a01b031681526020018e6001600160a01b031681526020018481526020018381526020016001151581526020018d81526020018b60018111156110f3576110f3613370565b90528154600181810184556000938452602093849020835160079093020180546001600160a01b039384166001600160a01b0319918216178255948401518183018054919094169516949094179091556040820151600284015560608201516003840155608082015160048401805491151560ff1992831617905560a0830151600585015560c083015160068501805494959491939092919091169083818111156111a0576111a0613370565b0217905550839150505b818111611243576000818152602081905260409020546111cd576111cd81612a80565b6000818152602081905260409020600301546111e9908d61284b565b60008281526020818152604080832060030193909355600281528282208a835290522054611217908d61284b565b60008281526002602090815260408083208b84529091529020558061123b81613315565b9150506111aa565b5061124d8b6129f1565b5060019c9b505050505050505050505050565b6000600f546000146112735750600f5490565b6000611282620186a043613299565b90506000611294600f62015180613266565b61129e9083613330565b905060006112b0600f62015180613266565b6112ba8385613299565b6112c49190613266565b6112cf90600161324e565b90506112df600f62014370613266565b82106112f3576112f081600161324e565b90505b9392505050565b6001600160a01b03808216600090815260086020526040812054909183911633146113375760405162461bcd60e51b81526004016101a790613076565b6001600160a01b038316600090815260076020526040902054600680548290811061136457611364613386565b600091825260209091206007600890920201015460ff166113be5760405162461bcd60e51b8152602060048201526014602482015273165bdd48185c99481b9bdd081c995cda59db995960621b60448201526064016101a7565b60006113c8611260565b600083815260096020526040902054909150158015906113f5575060008281526009602052604090205481115b801561141a575033600090815260056020908152604080832083805290915290205415155b156114525760008281526009602052604090206001015461143a816129f1565b50506000828152600960205260408120818155600101555b6001935050505b50919050565b60006112f383836105bc565b600080611477336126d5565b92915050565b600060608260007fb2876fa49f910e660fe95d6546d1c6c86c78af46f85672173ad5ab78d8143d9d60001b9050806114d5604051806040016040528060088152602001671c185cdcdddbdc9960c21b81525084610720565b1461151d5760405162461bcd60e51b815260206004820152601860248201527750617373776f7264206973206e6f7420636f72726563742160401b60448201526064016101a7565b601486111561156e5760405162461bcd60e51b815260206004820152601e60248201527f4d6178696d756d2032302056616c696461746f7273207065722050616765000060448201526064016101a7565b60008661157b898261327a565b6115859190613299565b61159090600161324e565b604080516101208101825260008082526020808301829052828401829052835190810190935280835260608201929092526080810182905260a0810182905260c0810182905260e0810182905261010081019190915260065491925090600114806115fc575060065482115b1561166357604080516001808252818301909252600091816020015b611620612b95565b815260200190600190039081611618579050509050818160008151811061164957611649613386565b602002602001018190525060008196509650505050611881565b60008867ffffffffffffffff81111561167e5761167e61339c565b6040519080825280602002602001820160405280156116b757816020015b6116a4612b95565b81526020019060019003908161169c5790505b50905060005b6116c78b8b61327a565b8410156118695760065484101561182a57600684815481106116eb576116eb613386565b60009182526020918290206040805161012081018252600890930290910180546001600160a01b03908116845260018201541693830193909352600283015490820152600382018054919291606084019190611746906132e0565b80601f0160208091040260200160405190810160405280929190818152602001828054611772906132e0565b80156117bf5780601f10611794576101008083540402835291602001916117bf565b820191906000526020600020905b8154815290600101906020018083116117a257829003601f168201915b505050918352505060048201546020820152600582015460408201526006820154606082015260079091015460ff8082161515608084015261010090910416151560a090910152825183908390811061181a5761181a613386565b6020026020010181905250611849565b8282828151811061183d5761183d613386565b60200260200101819052505b8061185381613315565b915050838061186190613315565b9450506116bd565b60065461187890600190613299565b97509095505050505b5050935093915050565b600060608260007fb2876fa49f910e660fe95d6546d1c6c86c78af46f85672173ad5ab78d8143d9d60001b9050806118e3604051806040016040528060088152602001671c185cdcdddbdc9960c21b81525084610720565b1461192b5760405162461bcd60e51b815260206004820152601860248201527750617373776f7264206973206e6f7420636f72726563742160401b60448201526064016101a7565b601486111561197c5760405162461bcd60e51b815260206004820152601960248201527f4d6178696d756d2032302055736572732070657220506167650000000000000060448201526064016101a7565b600086611989898261327a565b6119939190613299565b61199e90600161324e565b6040805160a08101825260008082526020820181905291810182905260608101829052608081019190915260035491925090600114806119df575060035482115b15611a2c57604080516001808252818301909252600091816020015b611a03612bf7565b8152602001906001900390816119fb579050509050818160008151811061164957611649613386565b60008867ffffffffffffffff811115611a4757611a4761339c565b604051908082528060200260200182016040528015611a8057816020015b611a6d612bf7565b815260200190600190039081611a655790505b50905060005b611a908b8b61327a565b841015611c1c57600354841015611bdd576040518060a0016040528085815260200160038681548110611ac557611ac5613386565b6000918252602091829020600290910201546001600160a01b0316825260038054929091019187908110611afb57611afb613386565b90600052602060002090600202016001015481526020016005600060038881548110611b2957611b29613386565b60009182526020808320600292909202909101546001600160a01b031683528201929092526040018120908081526020019081526020016000205481526020016005600060038881548110611b8057611b80613386565b60009182526020808320600292909202909101546001600160a01b0316835282810193909352604091820181206001825290925290205490528251839083908110611bcd57611bcd613386565b6020026020010181905250611bfc565b82828281518110611bf057611bf0613386565b60200260200101819052505b80611c0681613315565b9150508380611c1490613315565b945050611a86565b60035461187890600190613299565b6001600160a01b03841660009081526007602052604081205415611ca75760405162461bcd60e51b815260206004820152602d60248201527f546869732076616c696461746f72206164647265737320697320616c7265616460448201526c7920726567697374657265642160981b60648201526084016101a7565b69021e19e0c9bab2400000821015611d105760405162461bcd60e51b815260206004820152602660248201527f53656c662d5374616b65206973206e6f7420616e2061636365707461626c6520604482015265185b5bdd5b9d60d21b60648201526084016101a7565b3360009081526005602090815260408083206001845290915290205469021e19e0c9bab24000001115611dab5760405162461bcd60e51b815260206004820152603860248201527f596f7520646f206e6f74206861766520656e6f75676820756e6c6f636b65642060448201527f62616c616e63657320666f722053656c662d5374616b652e000000000000000060648201526084016101a7565b6006805460019081018083556000928352611dc69190613299565b90506000611dd2611260565b905060006001611de3601e8461324e565b611ded9190613299565b9050604051806101200160405280336001600160a01b03168152602001896001600160a01b031681526020018881526020018781526020018681526020018381526020018281526020016000151581526020016000151581525060068481548110611e5a57611e5a613386565b6000918252602091829020835160089092020180546001600160a01b039283166001600160a01b0319918216178255848401516001830180549190941691161790915560408301516002820155606083015180519192611ec292600385019290910190612c2f565b506080820151600482015560a0820151600582015560c0820151600682015560e08201516007918201805461010094850151151590940261ff00199215159290921661ffff1990941693909317179091556001600160a01b03891660009081526020918252604080822086905560089092522080546001600160a01b03191633179055611f4e856129f1565b5060005b601e81101561202357600080611f68838661324e565b8152602081019190915260400160002054611f8f57611f8f611f8a828561324e565b612a80565b611fc086600080611fa0858861324e565b81526020019081526020016000206002015461284b90919063ffffffff16565b600080611fcd848761324e565b81526020019081526020016000206002018190555085600160008386611ff3919061324e565b81526020808201929092526040908101600090812088825290925290205561201c81600161324e565b9050611f52565b5091979650505050505050565b601054600090819081612041611260565b90506010546000148061206b575061205b601e600761324e565b816010546120699190613299565b105b156120f35760006010546000141561209057612089601e600761324e565b90506120b7565b8160105461209e9190613299565b6120aa601e600761324e565b6120b49190613299565b90505b60005b818110156120f0576010546120d090600161324e565b60108190556120de90612a80565b6120e981600161324e565b90506120ba565b50505b5060105490939092509050565b6001600160a01b038083166000908152600860205260408120549091849116331461213d5760405162461bcd60e51b81526004016101a790613076565b6000612147611260565b905061215481600761324e565b8410156121b35760405162461bcd60e51b815260206004820152602760248201527f596f752063616e206e6f742072657369676e206265666f7265206e65787420376044820152662065706f63687360c81b60648201526084016101a7565b6001600160a01b038516600090815260076020526040812054600081815260096020526040902054909150156122225760405162461bcd60e51b8152602060048201526014602482015273165bdd48185b1c9958591e481c995cda59db995960621b60448201526064016101a7565b60006006828154811061223757612237613386565b90600052602060002090600802016006015490508086111561229b5760405162461bcd60e51b815260206004820152601760248201527f596f7520646f6e74206e65656420746f2072657369676e00000000000000000060448201526064016101a7565b85600683815481106122af576122af613386565b600091825260208220600660089092020101919091556122d082600161324e565b90505b868111612345576000818152600160209081526040808320868452825280832054848452918390529091206002015461230c9082612b02565b6000838152602081815260408083206002019390935560018152828220878352905290812055508061233d81613315565b9150506122d3565b50604080518082019091528061235c88600161284b565b81526020016006848154811061237457612374613386565b600091825260208083206004600890930201919091015490925284815260098252604090208251815591015160019182015560068054849081106123ba576123ba613386565b60009182526020909120600890910201600701805460ff19169115159190911790555060019695505050505050565b6001600160a01b03808216600090815260086020526040812054909183911633146124265760405162461bcd60e51b81526004016101a790613076565b6001600160a01b038316600090815260076020526040902054600680548290811061245357612453613386565b906000526020600020906008020160070160019054906101000a900460ff16156124ce5760405162461bcd60e51b815260206004820152602660248201527f596f7520616c72656164792074616b6520796f7572206c6f636b65642073656c604482015265667374616b6560d01b60648201526084016101a7565b60006124d8611260565b905080600683815481106124ee576124ee613386565b906000526020600020906008020160060154106125435760405162461bcd60e51b8152602060048201526013602482015272165bdd48185c99481b9bdd08195e1c1a5c9959606a1b60448201526064016101a7565b806006838154811061255757612557613386565b9060005260206000209060080201600601546007612575919061324e565b10156125d25760405162461bcd60e51b815260206004820152602660248201527f596f75206861766520746f207761697420372065706f636820616674657220656044820152651e1c1a5c995960d21b60648201526084016101a7565b600682815481106125e5576125e5613386565b6000918252602080832060089290920290910160040154338352600582526040808420848052909252912054101561265f5760405162461bcd60e51b815260206004820152601a60248201527f486f7573746f6e21205765206861766520612070726f626c656d00000000000060448201526064016101a7565b60016006838154811061267457612674613386565b906000526020600020906008020160070160016101000a81548160ff0219169083151502179055506126c9600683815481106126b2576126b2613386565b906000526020600020906008020160040154612b0e565b50600195945050505050565b6001600160a01b038116600090815260046020526040812054806114775760038054600190810191829055600c805482019055600a80548201815560005261271c91613299565b90506040518060400160405280846001600160a01b0316815260200160008152506003828154811061275057612750613386565b600091825260209182902083516002929092020180546001600160a01b0319166001600160a01b03909216919091178155910151600190910155600c8054849190839081106127a1576127a1613386565b906000526020600020906002020160000160006101000a8154816001600160a01b0302191690836001600160a01b0316021790555082600a82815481106127ea576127ea613386565b6000918252602080832060029290920290910180546001600160a01b0319166001600160a01b039485161790559490911681526004845260408082208390556005855280822060018352909452838120819055808052928320929092555090565b60006112f3828461324e565b60008083600181111561286c5761286c613370565b141561291f576001600160a01b03851660009081526005602052604081206128d1918491908760018111156128a3576128a3613370565b60018111156128b4576128b4613370565b81526020019081526020016000205461284b90919063ffffffff16565b6001600160a01b0386166000908152600560205260408120908660018111156128fc576128fc613370565b600181111561290d5761290d613370565b81526020810191909152604001600020555b600183600181111561293357612933613370565b14156129e6576001600160a01b03851660009081526005602052604081206129989184919087600181111561296a5761296a613370565b600181111561297b5761297b613370565b815260200190815260200160002054612b0290919063ffffffff16565b6001600160a01b0386166000908152600560205260408120908660018111156129c3576129c3613370565b60018111156129d4576129d4613370565b81526020810191909152604001600020555b506001949350505050565b33600090815260056020908152604080832060018452909152812054821115612a5c5760405162461bcd60e51b815260206004820152601e60248201527f556e6c6f636b65642042616c616e6365206973206e6f7420656e6f756768000060448201526064016101a7565b612a693360018085612857565b50612a773360008085612857565b50600192915050565b600081815260208190526040902054612aff576040805160a081018252828152600060208083018281528385018381526060850184815260808601858152888652858552878620965187559251600180880191909155915160028701555160038601559051600490940193909355918252828120818052909152908120555b50565b60006112f38284613299565b336000908152600560209081526040808320838052909152812054821115612b785760405162461bcd60e51b815260206004820152601c60248201527f4c6f636b65642042616c616e6365206973206e6f7420656e6f7567680000000060448201526064016101a7565b612b86336000600185612857565b50612a77336001600085612857565b60405180610120016040528060006001600160a01b0316815260200160006001600160a01b0316815260200160008152602001606081526020016000815260200160008152602001600081526020016000151581526020016000151581525090565b6040518060a001604052806000815260200160006001600160a01b031681526020016000815260200160008152602001600081525090565b828054612c3b906132e0565b90600052602060002090601f016020900481019282612c5d5760008555612ca3565b82601f10612c7657805160ff1916838001178555612ca3565b82800160010185558215612ca3579182015b82811115612ca3578251825591602001919060010190612c88565b50612caf929150612cb3565b5090565b5b80821115612caf5760008155600101612cb4565b80356001600160a01b0381168114612cdf57600080fd5b919050565b600082601f830112612cf557600080fd5b813567ffffffffffffffff80821115612d1057612d1061339c565b604051601f8301601f19908116603f01168101908282118183101715612d3857612d3861339c565b81604052838152866020858801011115612d5157600080fd5b836020870160208301376000602085830101528094505050505092915050565b600060208284031215612d8357600080fd5b6112f382612cc8565b60008060408385031215612d9f57600080fd5b612da883612cc8565b946020939093013593505050565b60008060008060808587031215612dcc57600080fd5b612dd585612cc8565b935060208501359250604085013567ffffffffffffffff811115612df857600080fd5b612e0487828801612ce4565b949793965093946060013593505050565b600080600060608486031215612e2a57600080fd5b612e3384612cc8565b95602085013595506040909401359392505050565b60008060008060808587031215612e5e57600080fd5b612e6785612cc8565b93506020850135925060408501359150606085013560028110612e8957600080fd5b939692955090935050565b60008060408385031215612ea757600080fd5b823567ffffffffffffffff80821115612ebf57600080fd5b612ecb86838701612ce4565b93506020850135915080821115612ee157600080fd5b50612eee85828601612ce4565b9150509250929050565b600060208284031215612f0a57600080fd5b5035919050565b60008060408385031215612f2457600080fd5b50508035926020909101359150565b600080600060608486031215612f4857600080fd5b8335925060208401359150604084013567ffffffffffffffff811115612f6d57600080fd5b612f7986828701612ce4565b9150509250925092565b60008151808452612f9b8160208601602086016132b0565b601f01601f19169290920160200192915050565b600061012060018060a01b0383511684526020830151612fda60208601826001600160a01b03169052565b50604083015160408501526060830151816060860152612ffc82860182612f83565b9150506080830151608085015260a083015160a085015260c083015160c085015260e083015161303060e086018215159052565b506101009283015115159390920192909252919050565b600083516130598184602088016132b0565b83519083019061306d8183602088016132b0565b01949350505050565b6020808252601c908201527f596f7520617265206e6f742076616c696461746f72206f776e65722100000000604082015260600190565b60208082526018908201527f596f7520617265206e6f74207374616b6520686f6c6465720000000000000000604082015260600190565b602080825282516001600160a01b03168282015282810151604080840181905281516060850181905260009392830191849160808701905b80841015613145578451805183528601518683015293850193600193909301929082019061311c565b50979650505050505050565b6020815260006112f36020830184612faf565b600060408083018584526020828186015281865180845260609350838701915082880160005b828110156131d557815180518552858101516001600160a01b031686860152878101518886015286810151878601526080908101519085015260a0909301929084019060010161318a565b50919998505050505050505050565b600060408201848352602060408185015281855180845260608601915060608160051b870101935082870160005b8281101561324057605f1988870301845261322e868351612faf565b95509284019290840190600101613212565b509398975050505050505050565b6000821982111561326157613261613344565b500190565b6000826132755761327561335a565b500490565b600081600019048311821515161561329457613294613344565b500290565b6000828210156132ab576132ab613344565b500390565b60005b838110156132cb5781810151838201526020016132b3565b838111156132da576000848401525b50505050565b600181811c908216806132f457607f821691505b6020821081141561145957634e487b7160e01b600052602260045260246000fd5b600060001982141561332957613329613344565b5060010190565b60008261333f5761333f61335a565b500690565b634e487b7160e01b600052601160045260246000fd5b634e487b7160e01b600052601260045260246000fd5b634e487b7160e01b600052602160045260246000fd5b634e487b7160e01b600052603260045260246000fd5b634e487b7160e01b600052604160045260246000fdfea2646970667358221220c177848732a425b84d2885f3c9f76b752f9cb59b8e2c18aff30c99a32dd702c864736f6c63430008070033",
    "sourcePath": "d:/Sandbox/PoS/ProofOfStake.sol",
    "compiler": {
        "name": "solc",
        "version": "0.8.7+commit.e28d00a7"
    },
    "functionHashes": {
        "_MINIMIMSELFSTAKE()": "e01a2c15",
        "_calculateNextEpoch()": "78d54e2f",
        "_epochList(uint256)": "ddbab24f",
        "_setFakeNextEpoch(uint256)": "1a03d38f",
        "addMeAsStackHolder()": "a6189ad8",
        "epochInit()": "d4695802",
        "extendValidatorEpochs(address,uint256,uint256)": "2dee64be",
        "getHash(string,string)": "27cf399a",
        "getMyLockedBalance()": "04c89d41",
        "getMyUnlockedBalance()": "2c0e43f7",
        "getUserDeposits(address)": "2a5bf6d2",
        "getUserList(uint256,uint256,string)": "aa57e0e9",
        "getValidatorByIndex(uint256)": "30af41b3",
        "getValidatorIndex(address)": "1fcc449e",
        "getValidatorList(uint256,uint256,string)": "a9ccd8ab",
        "initilazedLastEpoch()": "6be28334",
        "putSomeMoney(address,uint256)": "a056d68b",
        "registerValidator(address,uint256,string,uint256)": "c2ce61cf",
        "resignBalances(uint256)": "8b61f3a4",
        "resignCandidate(address,uint256)": "dc6246c8",
        "selfStakesForEpoch(uint256,uint256)": "412dace4",
        "setVote(address,uint256,uint256,uint8)": "5181441d",
        "unlockSelfStake(address)": "7e607216",
        "unlockSelfStakeWhenExpired(address)": "de8f08c0",
        "userVotesForEpoch(uint256,uint256)": "e05f33e2"
    },
    "gasEstimates": {
        "creation": {
            "codeDepositCost": "2657600",
            "executionCost": "infinite",
            "totalCost": "infinite"
        },
        "external": {
            "_MINIMIMSELFSTAKE()": "272",
            "_calculateNextEpoch()": "infinite",
            "_epochList(uint256)": "11029",
            "_setFakeNextEpoch(uint256)": "22427",
            "addMeAsStackHolder()": "192182",
            "epochInit()": "infinite",
            "extendValidatorEpochs(address,uint256,uint256)": "infinite",
            "getHash(string,string)": "infinite",
            "getMyLockedBalance()": "4683",
            "getMyUnlockedBalance()": "4804",
            "getUserDeposits(address)": "infinite",
            "getUserList(uint256,uint256,string)": "infinite",
            "getValidatorByIndex(uint256)": "infinite",
            "getValidatorIndex(address)": "2594",
            "getValidatorList(uint256,uint256,string)": "infinite",
            "initilazedLastEpoch()": "2395",
            "putSomeMoney(address,uint256)": "infinite",
            "registerValidator(address,uint256,string,uint256)": "infinite",
            "resignBalances(uint256)": "4622",
            "resignCandidate(address,uint256)": "infinite",
            "selfStakesForEpoch(uint256,uint256)": "2589",
            "setVote(address,uint256,uint256,uint8)": "infinite",
            "unlockSelfStake(address)": "infinite",
            "unlockSelfStakeWhenExpired(address)": "infinite",
            "userVotesForEpoch(uint256,uint256)": "2632"
        },
        "internal": {
            "_addStakeholder(address)": "infinite",
            "_changeBalance(address,enum BalanceTypes,enum BalanceChange,uint256)": "infinite",
            "_depositMoney(address,uint256)": "infinite",
            "_epochInitalize(uint256)": "infinite",
            "_getValidatorIndex(address)": "infinite",
            "_lockMyBalance(uint256)": "infinite",
            "_unLockMyBalance(uint256)": "infinite"
        }
    }
}